{
  "contractName": "KYCContract",
  "abi": [
    {
      "inputs": [],
      "payable": false,
      "stateMutability": "nonpayable",
      "type": "constructor"
    },
    {
      "constant": false,
      "inputs": [
        {
          "name": "_userName",
          "type": "string"
        },
        {
          "name": "_customerData",
          "type": "string"
        }
      ],
      "name": "addRequest",
      "outputs": [],
      "payable": false,
      "stateMutability": "nonpayable",
      "type": "function"
    },
    {
      "constant": false,
      "inputs": [
        {
          "name": "_userName",
          "type": "string"
        }
      ],
      "name": "removeRequest",
      "outputs": [],
      "payable": false,
      "stateMutability": "nonpayable",
      "type": "function"
    },
    {
      "constant": false,
      "inputs": [
        {
          "name": "_userName",
          "type": "string"
        },
        {
          "name": "_customerData",
          "type": "string"
        }
      ],
      "name": "addCustomer",
      "outputs": [],
      "payable": false,
      "stateMutability": "nonpayable",
      "type": "function"
    },
    {
      "constant": true,
      "inputs": [
        {
          "name": "_userName",
          "type": "string"
        }
      ],
      "name": "viewCustomer",
      "outputs": [
        {
          "name": "",
          "type": "string"
        },
        {
          "name": "",
          "type": "string"
        },
        {
          "name": "",
          "type": "bool"
        },
        {
          "name": "",
          "type": "uint256"
        },
        {
          "name": "",
          "type": "uint256"
        },
        {
          "name": "",
          "type": "address"
        }
      ],
      "payable": false,
      "stateMutability": "view",
      "type": "function"
    },
    {
      "constant": false,
      "inputs": [
        {
          "name": "_userName",
          "type": "string"
        },
        {
          "name": "_newcustomerData",
          "type": "string"
        }
      ],
      "name": "modifyCustomer",
      "outputs": [],
      "payable": false,
      "stateMutability": "nonpayable",
      "type": "function"
    },
    {
      "constant": false,
      "inputs": [
        {
          "name": "_userName",
          "type": "string"
        }
      ],
      "name": "setKYCstatus",
      "outputs": [],
      "payable": false,
      "stateMutability": "nonpayable",
      "type": "function"
    },
    {
      "constant": false,
      "inputs": [
        {
          "name": "_userName",
          "type": "string"
        }
      ],
      "name": "upvoteCustomer",
      "outputs": [],
      "payable": false,
      "stateMutability": "nonpayable",
      "type": "function"
    },
    {
      "constant": false,
      "inputs": [
        {
          "name": "_userName",
          "type": "string"
        }
      ],
      "name": "downvoteCustomer",
      "outputs": [],
      "payable": false,
      "stateMutability": "nonpayable",
      "type": "function"
    },
    {
      "constant": true,
      "inputs": [
        {
          "name": "_bankAddress",
          "type": "address"
        }
      ],
      "name": "Get_bank_complaints",
      "outputs": [
        {
          "name": "",
          "type": "uint256"
        }
      ],
      "payable": false,
      "stateMutability": "view",
      "type": "function"
    },
    {
      "constant": false,
      "inputs": [
        {
          "name": "_bankAddress",
          "type": "address"
        }
      ],
      "name": "if_bank_corrupted_disallow",
      "outputs": [],
      "payable": false,
      "stateMutability": "nonpayable",
      "type": "function"
    },
    {
      "constant": false,
      "inputs": [
        {
          "name": "_bankAddress",
          "type": "address"
        },
        {
          "name": "_bankName",
          "type": "string"
        }
      ],
      "name": "reportBank",
      "outputs": [],
      "payable": false,
      "stateMutability": "nonpayable",
      "type": "function"
    },
    {
      "constant": true,
      "inputs": [
        {
          "name": "_bankAddress",
          "type": "address"
        }
      ],
      "name": "view_bankDetails",
      "outputs": [
        {
          "name": "",
          "type": "string"
        },
        {
          "name": "",
          "type": "address"
        },
        {
          "name": "",
          "type": "uint256"
        },
        {
          "name": "",
          "type": "uint256"
        },
        {
          "name": "",
          "type": "bool"
        },
        {
          "name": "",
          "type": "string"
        }
      ],
      "payable": false,
      "stateMutability": "view",
      "type": "function"
    },
    {
      "constant": false,
      "inputs": [
        {
          "name": "_bankName",
          "type": "string"
        },
        {
          "name": "_bankAddress",
          "type": "address"
        },
        {
          "name": "_regNumber",
          "type": "string"
        }
      ],
      "name": "addbank",
      "outputs": [],
      "payable": false,
      "stateMutability": "nonpayable",
      "type": "function"
    },
    {
      "constant": false,
      "inputs": [
        {
          "name": "_bankAddress",
          "type": "address"
        },
        {
          "name": "_status",
          "type": "bool"
        }
      ],
      "name": "modifyBankisAllowedToVote",
      "outputs": [],
      "payable": false,
      "stateMutability": "nonpayable",
      "type": "function"
    },
    {
      "constant": false,
      "inputs": [
        {
          "name": "_bankAddress",
          "type": "address"
        }
      ],
      "name": "removeBank",
      "outputs": [],
      "payable": false,
      "stateMutability": "nonpayable",
      "type": "function"
    }
  ],
  "bytecode": "0x608060405234801561001057600080fd5b50336000806101000a81548173ffffffffffffffffffffffffffffffffffffffff021916908373ffffffffffffffffffffffffffffffffffffffff160217905550613461806100606000396000f3fe608060405234801561001057600080fd5b50600436106100f55760003560e01c8063c98b965e11610097578063f2f4ed8f11610066578063f2f4ed8f14610af4578063f3f8558b14610baf578063f518297f14610bf3578063f72860ca14610d68576100f5565b8063c98b965e1461081f578063cfb0a9f914610991578063de755265146109e9578063edbe29af14610a39576100f5565b80637d38d711116100d35780637d38d711146104f35780639649650c146105ae578063b2385204146105f2578063b9da4af8146106cd576100f5565b8063107925bb146100fa5780633190abc0146102e65780636cba00e614610438575b600080fd5b6101b36004803603602081101561011057600080fd5b810190808035906020019064010000000081111561012d57600080fd5b82018360208201111561013f57600080fd5b8035906020019184600183028401116401000000008311171561016157600080fd5b91908080601f016020809104026020016040519081016040528093929190818152602001838380828437600081840152601f19601f820116905080830192505050505050509192919290505050610eba565b604051808060200180602001871515151581526020018681526020018581526020018473ffffffffffffffffffffffffffffffffffffffff1673ffffffffffffffffffffffffffffffffffffffff168152602001838103835289818151815260200191508051906020019080838360005b8381101561023f578082015181840152602081019050610224565b50505050905090810190601f16801561026c5780820380516001836020036101000a031916815260200191505b50838103825288818151815260200191508051906020019080838360005b838110156102a557808201518184015260208101905061028a565b50505050905090810190601f1680156102d25780820380516001836020036101000a031916815260200191505b509850505050505050505060405180910390f35b610436600480360360408110156102fc57600080fd5b810190808035906020019064010000000081111561031957600080fd5b82018360208201111561032b57600080fd5b8035906020019184600183028401116401000000008311171561034d57600080fd5b91908080601f016020809104026020016040519081016040528093929190818152602001838380828437600081840152601f19601f820116905080830192505050505050509192919290803590602001906401000000008111156103b057600080fd5b8201836020820111156103c257600080fd5b803590602001918460018302840111640100000000831117156103e457600080fd5b91908080601f016020809104026020016040519081016040528093929190818152602001838380828437600081840152601f19601f8201169050808301925050505050505091929192905050506113db565b005b6104f16004803603602081101561044e57600080fd5b810190808035906020019064010000000081111561046b57600080fd5b82018360208201111561047d57600080fd5b8035906020019184600183028401116401000000008311171561049f57600080fd5b91908080601f016020809104026020016040519081016040528093929190818152602001838380828437600081840152601f19601f8201169050808301925050505050505091929192905050506118d1565b005b6105ac6004803603602081101561050957600080fd5b810190808035906020019064010000000081111561052657600080fd5b82018360208201111561053857600080fd5b8035906020019184600183028401116401000000008311171561055a57600080fd5b91908080601f016020809104026020016040519081016040528093929190818152602001838380828437600081840152601f19601f820116905080830192505050505050509192919290505050611a99565b005b6105f0600480360360208110156105c457600080fd5b81019080803573ffffffffffffffffffffffffffffffffffffffff169060200190929190505050611c97565b005b6106cb6004803603604081101561060857600080fd5b81019080803573ffffffffffffffffffffffffffffffffffffffff1690602001909291908035906020019064010000000081111561064557600080fd5b82018360208201111561065757600080fd5b8035906020019184600183028401116401000000008311171561067957600080fd5b91908080601f016020809104026020016040519081016040528093929190818152602001838380828437600081840152601f19601f820116905080830192505050505050509192919290505050611ef3565b005b61081d600480360360408110156106e357600080fd5b810190808035906020019064010000000081111561070057600080fd5b82018360208201111561071257600080fd5b8035906020019184600183028401116401000000008311171561073457600080fd5b91908080601f016020809104026020016040519081016040528093929190818152602001838380828437600081840152601f19601f8201169050808301925050505050505091929192908035906020019064010000000081111561079757600080fd5b8201836020820111156107a957600080fd5b803590602001918460018302840111640100000000831117156107cb57600080fd5b91908080601f016020809104026020016040519081016040528093929190818152602001838380828437600081840152601f19601f820116905080830192505050505050509192919290505050611f52565b005b61098f6004803603606081101561083557600080fd5b810190808035906020019064010000000081111561085257600080fd5b82018360208201111561086457600080fd5b8035906020019184600183028401116401000000008311171561088657600080fd5b91908080601f016020809104026020016040519081016040528093929190818152602001838380828437600081840152601f19601f820116905080830192505050505050509192919290803573ffffffffffffffffffffffffffffffffffffffff1690602001909291908035906020019064010000000081111561090957600080fd5b82018360208201111561091b57600080fd5b8035906020019184600183028401116401000000008311171561093d57600080fd5b91908080601f016020809104026020016040519081016040528093929190818152602001838380828437600081840152601f19601f820116905080830192505050505050509192919290505050612332565b005b6109d3600480360360208110156109a757600080fd5b81019080803573ffffffffffffffffffffffffffffffffffffffff16906020019092919050505061260a565b6040518082815260200191505060405180910390f35b610a37600480360360408110156109ff57600080fd5b81019080803573ffffffffffffffffffffffffffffffffffffffff169060200190929190803515159060200190929190505050612656565b005b610af260048036036020811015610a4f57600080fd5b8101908080359060200190640100000000811115610a6c57600080fd5b820183602082011115610a7e57600080fd5b80359060200191846001830284011164010000000083111715610aa057600080fd5b91908080601f016020809104026020016040519081016040528093929190818152602001838380828437600081840152601f19601f82011690508083019250505050505050919291929050505061275b565b005b610bad60048036036020811015610b0a57600080fd5b8101908080359060200190640100000000811115610b2757600080fd5b820183602082011115610b3957600080fd5b80359060200191846001830284011164010000000083111715610b5b57600080fd5b91908080601f016020809104026020016040519081016040528093929190818152602001838380828437600081840152601f19601f8201169050808301925050505050505091929192905050506129d5565b005b610bf160048036036020811015610bc557600080fd5b81019080803573ffffffffffffffffffffffffffffffffffffffff169060200190929190505050612a5d565b005b610c3560048036036020811015610c0957600080fd5b81019080803573ffffffffffffffffffffffffffffffffffffffff169060200190929190505050612b12565b60405180806020018773ffffffffffffffffffffffffffffffffffffffff1673ffffffffffffffffffffffffffffffffffffffff1681526020018681526020018581526020018415151515815260200180602001838103835289818151815260200191508051906020019080838360005b83811015610cc1578082015181840152602081019050610ca6565b50505050905090810190601f168015610cee5780820380516001836020036101000a031916815260200191505b50838103825284818151815260200191508051906020019080838360005b83811015610d27578082015181840152602081019050610d0c565b50505050905090810190601f168015610d545780820380516001836020036101000a031916815260200191505b509850505050505050505060405180910390f35b610eb860048036036040811015610d7e57600080fd5b8101908080359060200190640100000000811115610d9b57600080fd5b820183602082011115610dad57600080fd5b80359060200191846001830284011164010000000083111715610dcf57600080fd5b91908080601f016020809104026020016040519081016040528093929190818152602001838380828437600081840152601f19601f82011690508083019250505050505050919291929080359060200190640100000000811115610e3257600080fd5b820183602082011115610e4457600080fd5b80359060200191846001830284011164010000000083111715610e6657600080fd5b91908080601f016020809104026020016040519081016040528093929190818152602001838380828437600081840152601f19601f820116905080830192505050505050509192919290505050612f0e565b005b606080600080600080600073ffffffffffffffffffffffffffffffffffffffff166002886040518082805190602001908083835b60208310610f115780518252602082019150602081019050602083039250610eee565b6001836020036101000a038019825116818451168082178552505050505050905001915050908152602001604051809103902060050160009054906101000a900473ffffffffffffffffffffffffffffffffffffffff1673ffffffffffffffffffffffffffffffffffffffff161415610fd5576040517f08c379a00000000000000000000000000000000000000000000000000000000081526004018080602001828103825260278152602001806133916027913960400191505060405180910390fd5b6002876040518082805190602001908083835b6020831061100b5780518252602082019150602081019050602083039250610fe8565b6001836020036101000a03801982511681845116808217855250505050505090500191505090815260200160405180910390206000016002886040518082805190602001908083835b602083106110775780518252602082019150602081019050602083039250611054565b6001836020036101000a03801982511681845116808217855250505050505090500191505090815260200160405180910390206001016002896040518082805190602001908083835b602083106110e357805182526020820191506020810190506020830392506110c0565b6001836020036101000a038019825116818451168082178552505050505050905001915050908152602001604051809103902060020160009054906101000a900460ff1660028a6040518082805190602001908083835b6020831061115d578051825260208201915060208101905060208303925061113a565b6001836020036101000a03801982511681845116808217855250505050505090500191505090815260200160405180910390206003015460028b6040518082805190602001908083835b602083106111ca57805182526020820191506020810190506020830392506111a7565b6001836020036101000a03801982511681845116808217855250505050505090500191505090815260200160405180910390206004015460028c6040518082805190602001908083835b602083106112375780518252602082019150602081019050602083039250611214565b6001836020036101000a038019825116818451168082178552505050505050905001915050908152602001604051809103902060050160009054906101000a900473ffffffffffffffffffffffffffffffffffffffff16858054600181600116156101000203166002900480601f0160208091040260200160405190810160405280929190818152602001828054600181600116156101000203166002900480156113235780601f106112f857610100808354040283529160200191611323565b820191906000526020600020905b81548152906001019060200180831161130657829003601f168201915b50505050509550848054600181600116156101000203166002900480601f0160208091040260200160405190810160405280929190818152602001828054600181600116156101000203166002900480156113bf5780601f10611394576101008083540402835291602001916113bf565b820191906000526020600020905b8154815290600101906020018083116113a257829003601f168201915b5050505050945095509550955095509550955091939550919395565b3360011515600360003373ffffffffffffffffffffffffffffffffffffffff1673ffffffffffffffffffffffffffffffffffffffff16815260200190815260200160002060040160009054906101000a900460ff161515146114a5576040517f08c379a000000000000000000000000000000000000000000000000000000000815260040180806020018281038252601b8152602001807f42616e6b206973206e6f7420616c6c6f77656420746f20766f7465000000000081525060200191505060405180910390fd5b600073ffffffffffffffffffffffffffffffffffffffff166002846040518082805190602001908083835b602083106114f357805182526020820191506020810190506020830392506114d0565b6001836020036101000a038019825116818451168082178552505050505050905001915050908152602001604051809103902060050160009054906101000a900473ffffffffffffffffffffffffffffffffffffffff1673ffffffffffffffffffffffffffffffffffffffff16146115b6576040517f08c379a00000000000000000000000000000000000000000000000000000000081526004018080602001828103825260518152602001806133b86051913960600191505060405180910390fd5b826002846040518082805190602001908083835b602083106115ed57805182526020820191506020810190506020830392506115ca565b6001836020036101000a0380198251168184511680821785525050505050509050019150509081526020016040518091039020600001908051906020019061163692919061325d565b50816002846040518082805190602001908083835b6020831061166e578051825260208201915060208101905060208303925061164b565b6001836020036101000a038019825116818451168082178552505050505050905001915050908152602001604051809103902060010190805190602001906116b792919061325d565b50336002846040518082805190602001908083835b602083106116ef57805182526020820191506020810190506020830392506116cc565b6001836020036101000a038019825116818451168082178552505050505050905001915050908152602001604051809103902060050160006101000a81548173ffffffffffffffffffffffffffffffffffffffff021916908373ffffffffffffffffffffffffffffffffffffffff16021790555060006002846040518082805190602001908083835b6020831061179b5780518252602082019150602081019050602083039250611778565b6001836020036101000a038019825116818451168082178552505050505050905001915050908152602001604051809103902060020160006101000a81548160ff02191690831515021790555060006002846040518082805190602001908083835b6020831061182057805182526020820191506020810190506020830392506117fd565b6001836020036101000a03801982511681845116808217855250505050505090500191505090815260200160405180910390206003018190555060006002846040518082805190602001908083835b60208310611892578051825260208201915060208101905060208303925061186f565b6001836020036101000a038019825116818451168082178552505050505050905001915050908152602001604051809103902060040181905550505050565b600073ffffffffffffffffffffffffffffffffffffffff166004826040518082805190602001908083835b6020831061191f57805182526020820191506020810190506020830392506118fc565b6001836020036101000a038019825116818451168082178552505050505050905001915050908152602001604051809103902060010160009054906101000a900473ffffffffffffffffffffffffffffffffffffffff1673ffffffffffffffffffffffffffffffffffffffff1614156119e3576040517f08c379a000000000000000000000000000000000000000000000000000000000815260040180806020018281038252602381526020018061334b6023913960400191505060405180910390fd5b6004816040518082805190602001908083835b60208310611a1957805182526020820191506020810190506020830392506119f6565b6001836020036101000a038019825116818451168082178552505050505050905001915050908152602001604051809103902060008082016000611a5d91906132dd565b6001820160006101000a81549073ffffffffffffffffffffffffffffffffffffffff0219169055600282016000611a9491906132dd565b505050565b6002816040518082805190602001908083835b60208310611acf5780518252602082019150602081019050602083039250611aac565b6001836020036101000a038019825116818451168082178552505050505050905001915050908152602001604051809103902060030160008154809291906001019190505550611b1e8161275b565b6005600154118015611ba75750600260015481611b3757fe5b046002826040518082805190602001908083835b60208310611b6e5780518252602082019150602081019050602083039250611b4b565b6001836020036101000a038019825116818451168082178552505050505050905001915050908152602001604051809103902060030154115b15611c94576000600360006002846040518082805190602001908083835b60208310611be85780518252602082019150602081019050602083039250611bc5565b6001836020036101000a038019825116818451168082178552505050505050905001915050908152602001604051809103902060050160009054906101000a900473ffffffffffffffffffffffffffffffffffffffff1673ffffffffffffffffffffffffffffffffffffffff1673ffffffffffffffffffffffffffffffffffffffff16815260200190815260200160002060040160006101000a81548160ff0219169083151502179055505b50565b336000809054906101000a900473ffffffffffffffffffffffffffffffffffffffff1673ffffffffffffffffffffffffffffffffffffffff168173ffffffffffffffffffffffffffffffffffffffff1614611d3d576040517f08c379a00000000000000000000000000000000000000000000000000000000081526004018080602001828103825260248152602001806134096024913960400191505060405180910390fd5b600073ffffffffffffffffffffffffffffffffffffffff16600360008473ffffffffffffffffffffffffffffffffffffffff1673ffffffffffffffffffffffffffffffffffffffff16815260200190815260200160002060010160009054906101000a900473ffffffffffffffffffffffffffffffffffffffff1673ffffffffffffffffffffffffffffffffffffffff161415611e42576040517f08c379a000000000000000000000000000000000000000000000000000000000815260040180806020018281038252601f8152602001807f42616e6b206973206e6f742070726573656e7420696e2064617461626173650081525060200191505060405180910390fd5b600360008373ffffffffffffffffffffffffffffffffffffffff1673ffffffffffffffffffffffffffffffffffffffff16815260200190815260200160002060008082016000611e9291906132dd565b6001820160006101000a81549073ffffffffffffffffffffffffffffffffffffffff0219169055600282016000905560038201600090556004820160006101000a81549060ff0219169055600582016000611eed91906132dd565b50505050565b600360008373ffffffffffffffffffffffffffffffffffffffff1673ffffffffffffffffffffffffffffffffffffffff16815260200190815260200160002060020160008154809291906001019190505550611f4e82612a5d565b5050565b3360011515600360003373ffffffffffffffffffffffffffffffffffffffff1673ffffffffffffffffffffffffffffffffffffffff16815260200190815260200160002060040160009054906101000a900460ff1615151461201c576040517f08c379a000000000000000000000000000000000000000000000000000000000815260040180806020018281038252601b8152602001807f42616e6b206973206e6f7420616c6c6f77656420746f20766f7465000000000081525060200191505060405180910390fd5b600073ffffffffffffffffffffffffffffffffffffffff166002846040518082805190602001908083835b6020831061206a5780518252602082019150602081019050602083039250612047565b6001836020036101000a038019825116818451168082178552505050505050905001915050908152602001604051809103902060050160009054906101000a900473ffffffffffffffffffffffffffffffffffffffff1673ffffffffffffffffffffffffffffffffffffffff16141561212e576040517f08c379a00000000000000000000000000000000000000000000000000000000081526004018080602001828103825260278152602001806133916027913960400191505060405180910390fd5b826004846040518082805190602001908083835b602083106121655780518252602082019150602081019050602083039250612142565b6001836020036101000a038019825116818451168082178552505050505050905001915050908152602001604051809103902060000190805190602001906121ae92919061325d565b50816004846040518082805190602001908083835b602083106121e657805182526020820191506020810190506020830392506121c3565b6001836020036101000a0380198251168184511680821785525050505050509050019150509081526020016040518091039020600201908051906020019061222f92919061325d565b50336004846040518082805190602001908083835b602083106122675780518252602082019150602081019050602083039250612244565b6001836020036101000a038019825116818451168082178552505050505050905001915050908152602001604051809103902060010160006101000a81548173ffffffffffffffffffffffffffffffffffffffff021916908373ffffffffffffffffffffffffffffffffffffffff160217905550600360003373ffffffffffffffffffffffffffffffffffffffff1673ffffffffffffffffffffffffffffffffffffffff16815260200190815260200160002060030160008154809291906001019190505550505050565b336000809054906101000a900473ffffffffffffffffffffffffffffffffffffffff1673ffffffffffffffffffffffffffffffffffffffff168173ffffffffffffffffffffffffffffffffffffffff16146123d8576040517f08c379a00000000000000000000000000000000000000000000000000000000081526004018080602001828103825260248152602001806134096024913960400191505060405180910390fd5b60016000815480929190600101919050555083600360008573ffffffffffffffffffffffffffffffffffffffff1673ffffffffffffffffffffffffffffffffffffffff168152602001908152602001600020600001908051906020019061244092919061325d565b5082600360008573ffffffffffffffffffffffffffffffffffffffff1673ffffffffffffffffffffffffffffffffffffffff16815260200190815260200160002060010160006101000a81548173ffffffffffffffffffffffffffffffffffffffff021916908373ffffffffffffffffffffffffffffffffffffffff16021790555081600360008573ffffffffffffffffffffffffffffffffffffffff1673ffffffffffffffffffffffffffffffffffffffff168152602001908152602001600020600501908051906020019061251892919061325d565b506000600360008573ffffffffffffffffffffffffffffffffffffffff1673ffffffffffffffffffffffffffffffffffffffff168152602001908152602001600020600201819055506001600360008573ffffffffffffffffffffffffffffffffffffffff1673ffffffffffffffffffffffffffffffffffffffff16815260200190815260200160002060040160006101000a81548160ff0219169083151502179055506000600360008573ffffffffffffffffffffffffffffffffffffffff1673ffffffffffffffffffffffffffffffffffffffff1681526020019081526020016000206003018190555050505050565b6000600360008373ffffffffffffffffffffffffffffffffffffffff1673ffffffffffffffffffffffffffffffffffffffff168152602001908152602001600020600201549050919050565b336000809054906101000a900473ffffffffffffffffffffffffffffffffffffffff1673ffffffffffffffffffffffffffffffffffffffff168173ffffffffffffffffffffffffffffffffffffffff16146126fc576040517f08c379a00000000000000000000000000000000000000000000000000000000081526004018080602001828103825260248152602001806134096024913960400191505060405180910390fd5b81600360008573ffffffffffffffffffffffffffffffffffffffff1673ffffffffffffffffffffffffffffffffffffffff16815260200190815260200160002060040160006101000a81548160ff021916908315150217905550505050565b6002816040518082805190602001908083835b60208310612791578051825260208201915060208101905060208303925061276e565b6001836020036101000a0380198251168184511680821785525050505050509050019150509081526020016040518091039020600301546002826040518082805190602001908083835b602083106127fe57805182526020820191506020810190506020830392506127db565b6001836020036101000a03801982511681845116808217855250505050505090500191505090815260200160405180910390206004015411156128c15760016002826040518082805190602001908083835b602083106128735780518252602082019150602081019050602083039250612850565b6001836020036101000a038019825116818451168082178552505050505050905001915050908152602001604051809103902060020160006101000a81548160ff0219169083151502179055505b6005600154106129d2576003600154816128d757fe5b046002826040518082805190602001908083835b6020831061290e57805182526020820191506020810190506020830392506128eb565b6001836020036101000a03801982511681845116808217855250505050505090500191505090815260200160405180910390206003015411156129d15760006002826040518082805190602001908083835b602083106129835780518252602082019150602081019050602083039250612960565b6001836020036101000a038019825116818451168082178552505050505050905001915050908152602001604051809103902060020160006101000a81548160ff0219169083151502179055505b5b50565b6002816040518082805190602001908083835b60208310612a0b57805182526020820191506020810190506020830392506129e8565b6001836020036101000a038019825116818451168082178552505050505050905001915050908152602001604051809103902060040160008154809291906001019190505550612a5a8161275b565b50565b600360015481612a6957fe5b04600360008373ffffffffffffffffffffffffffffffffffffffff1673ffffffffffffffffffffffffffffffffffffffff168152602001908152602001600020600201541115612b0f576000600360008373ffffffffffffffffffffffffffffffffffffffff1673ffffffffffffffffffffffffffffffffffffffff16815260200190815260200160002060040160006101000a81548160ff0219169083151502179055505b50565b60606000806000806060600073ffffffffffffffffffffffffffffffffffffffff16600360008973ffffffffffffffffffffffffffffffffffffffff1673ffffffffffffffffffffffffffffffffffffffff16815260200190815260200160002060010160009054906101000a900473ffffffffffffffffffffffffffffffffffffffff1673ffffffffffffffffffffffffffffffffffffffff161415612c04576040517f08c379a000000000000000000000000000000000000000000000000000000000815260040180806020018281038252602381526020018061336e6023913960400191505060405180910390fd5b600360008873ffffffffffffffffffffffffffffffffffffffff1673ffffffffffffffffffffffffffffffffffffffff168152602001908152602001600020600001600360008973ffffffffffffffffffffffffffffffffffffffff1673ffffffffffffffffffffffffffffffffffffffff16815260200190815260200160002060010160009054906101000a900473ffffffffffffffffffffffffffffffffffffffff16600360008a73ffffffffffffffffffffffffffffffffffffffff1673ffffffffffffffffffffffffffffffffffffffff16815260200190815260200160002060020154600360008b73ffffffffffffffffffffffffffffffffffffffff1673ffffffffffffffffffffffffffffffffffffffff16815260200190815260200160002060030154600360008c73ffffffffffffffffffffffffffffffffffffffff1673ffffffffffffffffffffffffffffffffffffffff16815260200190815260200160002060040160009054906101000a900460ff16600360008d73ffffffffffffffffffffffffffffffffffffffff1673ffffffffffffffffffffffffffffffffffffffff168152602001908152602001600020600501858054600181600116156101000203166002900480601f016020809104026020016040519081016040528092919081815260200182805460018160011615610100020316600290048015612e565780601f10612e2b57610100808354040283529160200191612e56565b820191906000526020600020905b815481529060010190602001808311612e3957829003601f168201915b50505050509550808054600181600116156101000203166002900480601f016020809104026020016040519081016040528092919081815260200182805460018160011615610100020316600290048015612ef25780601f10612ec757610100808354040283529160200191612ef2565b820191906000526020600020905b815481529060010190602001808311612ed557829003601f168201915b5050505050905095509550955095509550955091939550919395565b3360011515600360003373ffffffffffffffffffffffffffffffffffffffff1673ffffffffffffffffffffffffffffffffffffffff16815260200190815260200160002060040160009054906101000a900460ff16151514612fd8576040517f08c379a000000000000000000000000000000000000000000000000000000000815260040180806020018281038252601b8152602001807f42616e6b206973206e6f7420616c6c6f77656420746f20766f7465000000000081525060200191505060405180910390fd5b600073ffffffffffffffffffffffffffffffffffffffff166002846040518082805190602001908083835b602083106130265780518252602082019150602081019050602083039250613003565b6001836020036101000a038019825116818451168082178552505050505050905001915050908152602001604051809103902060050160009054906101000a900473ffffffffffffffffffffffffffffffffffffffff1673ffffffffffffffffffffffffffffffffffffffff1614156130ea576040517f08c379a00000000000000000000000000000000000000000000000000000000081526004018080602001828103825260278152602001806133916027913960400191505060405180910390fd5b816002846040518082805190602001908083835b6020831061312157805182526020820191506020810190506020830392506130fe565b6001836020036101000a0380198251168184511680821785525050505050509050019150509081526020016040518091039020600101908051906020019061316a92919061325d565b5060006002846040518082805190602001908083835b602083106131a35780518252602082019150602081019050602083039250613180565b6001836020036101000a03801982511681845116808217855250505050505090500191505090815260200160405180910390206003018190555060006002846040518082805190602001908083835b6020831061321557805182526020820191506020810190506020830392506131f2565b6001836020036101000a038019825116818451168082178552505050505050905001915050908152602001604051809103902060040181905550613258836118d1565b505050565b828054600181600116156101000203166002900490600052602060002090601f016020900481019282601f1061329e57805160ff19168380011785556132cc565b828001600101855582156132cc579182015b828111156132cb5782518255916020019190600101906132b0565b5b5090506132d99190613325565b5090565b50805460018160011615610100020316600290046000825580601f106133035750613322565b601f0160209004906000526020600020908101906133219190613325565b5b50565b61334791905b8082111561334357600081600090555060010161332b565b5090565b9056fe4e6f20726571756573742069732070726573656e7420666f722074686973207573657242616e6b206973206e6f742070726573656e7420696e20746865206461746162617365437573746f6d6572206973206e6f742070726573656e7420696e20746865206461746162617365437573746f6d657220697320616c72656164792070726573656e742c20706c656173652063616c6c206d6f64696679437573746f6d657220746f20656469742074686520637573746f6d6572206461746154686973206170692063616e206f6e6c792062652063616c6c65642062792061646d696ea265627a7a72305820f56b34684531c07182d5390064b87cb1cfd0bb31947bc01617d0956cd80cd0ca64736f6c63430005090032",
  "source": "pragma solidity ^0.5.9;\r\n\r\ncontract KYCContract{\r\n\r\n    address admin;\r\n\r\n    // This stores total number of banks added by admin\r\n    uint numBanks;\r\n\r\n    struct Customer {\r\n        string userName;   \r\n        string data; \r\n        //This boolean captures status of the KYC request\r\n        bool kycStatus; \r\n        //Number of downvotes received\r\n        uint downVotes;\r\n        //NUmber of upvotes recieved\r\n        uint upVotes;\r\n        address bank;\r\n    }\r\n    \r\n    struct Bank {\r\n        string name;\r\n        address ethAddress;\r\n        //Number of complaints against this bank\r\n        uint complaintsReported;\r\n        //Number of KYC requests initiated by this bank\r\n        uint KYC_count;\r\n        //Status of the bank\r\n        bool isAllowedToVote;\r\n        string regNumber;\r\n    }\r\n\r\n    struct Kyc_request {\r\n      //Maps the KYC request to the customer data\r\n      string userName;\r\n      address bankAddress;\r\n      //Customer's data or identity documents provided by the customer.\r\n      string data;\r\n    }\r\n\r\n    mapping(string => Customer) customers;\r\n\r\n    mapping(address => Bank) banks;\r\n    mapping(string =>Kyc_request) requests;\r\n  \r\n    //msg.sender as admin while deploying the smart contract\r\n    constructor() public{\r\n      admin = msg.sender;\r\n    }\r\n    \r\n    //modifier to check for admin functionalities\r\n    modifier isadmin(address _senderAddress){\r\n      require(_senderAddress == admin,\"This api can only be called by admin\");\r\n      _;\r\n    }\r\n\r\n    //Modifier to Check that bank is allowed to vote \r\n    modifier isbankvalid(address _bankAddress){\r\n        require(banks[msg.sender].isAllowedToVote == true,\"Bank is not allowed to vote\");\r\n        _;\r\n    }\r\n\r\n///////////////////////////////Bank Interface/////////////////////////////////////\r\n\r\n    //This function is used to add the KYC request to the requests list\r\n    // This function is only accesed by valid bank\r\n    function addRequest(string memory _userName, string memory _customerData) public isbankvalid(msg.sender){\r\n        \r\n        //check whether the customer exists before addKycrequest.\r\n        require(customers[_userName].bank != address(0), \"Customer is not present in the database\");\r\n       \r\n        requests[_userName].userName = _userName;\r\n        requests[_userName].data = _customerData;\r\n        requests[_userName].bankAddress = msg.sender;\r\n\r\n        //Increment KYC count for this bank\r\n        banks[msg.sender].KYC_count++;\r\n\r\n    }\r\n    \r\n    //This function will remove the request from the requests list.\r\n    function removeRequest(string memory _userName) public {\r\n      //error handling\r\n      require(requests[_userName].bankAddress != address(0),\"No request is present for this user\" );\r\n\r\n      delete requests[_userName];\r\n    }\r\n\r\n    //This function will add a customer to the customer list. \r\n    // Can only be accessed by valid bank\r\n    function addCustomer(string memory _userName, string memory _customerData) public isbankvalid(msg.sender) {\r\n        //error handling \r\n        require(customers[_userName].bank == address(0), \"Customer is already present, please call modifyCustomer to edit the customer data\");\r\n\r\n        customers[_userName].userName = _userName;\r\n        customers[_userName].data = _customerData;\r\n        customers[_userName].bank = msg.sender;\r\n\r\n        //Initialize upvotes and downvotes to 0 ans set kyc status to false\r\n        customers[_userName].kycStatus = false;\r\n        customers[_userName].downVotes = 0;\r\n        customers[_userName].upVotes = 0;\r\n\r\n    }\r\n    \r\n    //This function allows a bank to view the details of a customer.\r\n    function viewCustomer(string memory _userName) public view returns (string memory, string memory, bool, uint, uint, address) {\r\n        require(customers[_userName].bank != address(0), \"Customer is not present in the database\");\r\n        \r\n        return (customers[_userName].userName, customers[_userName].data, customers[_userName].kycStatus, customers[_userName].downVotes, \r\n        customers[_userName].upVotes, customers[_userName].bank);\r\n    }\r\n    \r\n    //This function allows a bank to modify a customer's data\r\n    // Can only be accessed by valid bank\r\n    function modifyCustomer(string memory _userName, string memory _newcustomerData) public isbankvalid(msg.sender) {\r\n        require(customers[_userName].bank != address(0), \"Customer is not present in the database\");\r\n\r\n        customers[_userName].data = _newcustomerData;\r\n\r\n        //This will remove the customer from the KYC request list and set the number of downvotes and upvotes to zero. \r\n        customers[_userName].downVotes = 0;\r\n        customers[_userName].upVotes = 0;\r\n        removeRequest(_userName);\r\n    }    \r\n\r\n    // Logic to certain KYC status of customer\r\n    function setKYCstatus(string memory _userName) public{\r\n      // If the number of upvotes is greater than the number of downvotes, then the kycStatus of that customer is set to true\r\n      if(customers[_userName].upVotes > customers[_userName].downVotes){\r\n        customers[_userName].kycStatus = true;  \r\n      }\r\n      //If a customer gets downvoted by one-third of the banks, then the kycStatus of the customer is changed to false\r\n      if(numBanks>=5){\r\n        if(customers[_userName].downVotes > numBanks/3){\r\n          customers[_userName].kycStatus = false;  \r\n        }\r\n      }\r\n    }\r\n    //This function allows a bank to cast a upvote for a customer.\r\n    function upvoteCustomer(string memory _userName) public{\r\n\r\n      customers[_userName].upVotes ++;\r\n      // Set KYC status for this customer on receiving update in upvotes\r\n      setKYCstatus(_userName);\r\n    }\r\n    //This function allows a bank to cast a downvote for a customer.\r\n    function downvoteCustomer(string memory _userName) public{\r\n\r\n      customers[_userName].downVotes ++;\r\n      // Set KYC status for this customer on receiving update in downvotes\r\n      setKYCstatus(_userName);\r\n\r\n      // If the customer verified by a bank gets more nunbanks/2 downvotes, then the bank gets invalidated.\r\n      if(numBanks > 5 &&\r\n         customers[_userName].downVotes > numBanks/2){\r\n        banks[customers[_userName].bank].isAllowedToVote = false;\r\n      }\r\n    }\r\n    // This function returns complain reported against banks\r\n    function Get_bank_complaints(address _bankAddress) public view returns(uint){\r\n\r\n      return banks[_bankAddress].complaintsReported;\r\n    }\r\n    //This function is used to fetch the bank details.\r\n\r\n\r\n    // This function contains logic to check if bank is corrupted \r\n    function if_bank_corrupted_disallow(address _bankAddress) public {\r\n\r\n      //If more than one-third of the total banks in the network complain against this bank\r\n      if(banks[_bankAddress].complaintsReported > numBanks/3){\r\n        banks[_bankAddress].isAllowedToVote = false;\r\n      }\r\n\r\n    }\r\n    //This function is used to report a complaint against any bank in the network\r\n    function reportBank(address _bankAddress, string memory _bankName) public{\r\n\r\n      banks[_bankAddress].complaintsReported ++;\r\n      // If a bank is corrupted disallow it from voting\r\n      if_bank_corrupted_disallow(_bankAddress);\r\n\r\n    }\r\n    \r\n    // Function to view bank details\r\n    // Please note in question it's asked to to return Bank struct as a whole but it's not possible in solidity\r\n    // Hence returning each element individually\r\n    function view_bankDetails(address _bankAddress) public view returns(string memory, address,\r\n    uint, uint, bool, string memory)\r\n    {\r\n      require(banks[_bankAddress].ethAddress != address(0), \"Bank is not present in the database\");\r\n        \r\n      return (banks[_bankAddress].name, banks[_bankAddress].ethAddress, banks[_bankAddress].complaintsReported,\r\n      banks[_bankAddress].KYC_count, banks[_bankAddress].isAllowedToVote,banks[_bankAddress].regNumber);\r\n    }\r\n    /////////////////////////////////////////////////////////////\r\n    ///////////////////// Admin Interface ///////////////\r\n\r\n    //This function is used by the admin to add a bank to the KYC Contract\r\n    function addbank(string memory _bankName, address _bankAddress, string memory _regNumber) public isadmin(msg.sender){\r\n        // Increment number of banks\r\n      numBanks++;\r\n      banks[_bankAddress].name = _bankName;\r\n      banks[_bankAddress].ethAddress = _bankAddress;\r\n      banks[_bankAddress].regNumber = _regNumber;\r\n      \r\n      // Set the number of complaintsReported initially to zero and KYC permission as 'allowed/true'\r\n      banks[_bankAddress].complaintsReported = 0;\r\n      banks[_bankAddress].isAllowedToVote = true;\r\n      banks[_bankAddress].KYC_count = 0; \r\n    }\r\n\r\n    //Api to change the status of isAllowedToVote of any of the banks\r\n    function modifyBankisAllowedToVote(address _bankAddress, bool _status) public isadmin(msg.sender){\r\n      \r\n      banks[_bankAddress].isAllowedToVote = _status;\r\n    }\r\n    //This function is used by the admin to remove a bank from the KYC Contract\r\n    function removeBank(address _bankAddress) public isadmin(msg.sender){\r\n      // Revert if bank is not present\r\n      require(banks[_bankAddress].ethAddress != address(0),\"Bank is not present in database\");\r\n\r\n      delete banks[_bankAddress];\r\n    }\r\n    ///////////////////////////////////////////////////////////////////\r\n}    \r\n\r\n\r\n",
  "sourcePath": "C:\\Users\\karti\\Downloads\\CAT\\KYC_Assign\\contracts\\KYCContract.sol",
  "compiler": {
    "name": "solc",
    "version": "0.5.9+commit.e560f70d.Emscripten.clang"
  },
  "schemaVersion": "3.4.3",
  "updatedAt": "2021-11-28T11:43:20.346Z",
  "networkType": "ethereum",
  "devdoc": {
    "methods": {}
  },
  "userdoc": {
    "methods": {
      "addRequest(string,string)": {
        "notice": "////////////////////////////Bank Interface/////////////////////////////////////"
      },
      "addbank(string,address,string)": {
        "notice": "////////////////// Admin Interface ///////////////"
      }
    }
  }
}